:100000000C948E060C94D5060C94D5060C94D5064B
:100010000C94D5060C94D5060C94D5060C94D506F4
:100020000C94D5060C94D5060C94E6150C94B916D0
:100030000C9487250C94D5060C94D5060C94D50603
:100040000C94D5060C94D5060C94D5060C94D506C4
:100050000C94D5060C9416260C94D5060C94D50653
:100060000C94D5060C9434090C94D5060C94D50642
:100070000C94D5060C94D5060C94D5060C94D50694
:100080000C94D5060C94D5060C94D5060C94D50684
:100090000C94D5060C94D5060C94D5060C94D50674
:1000A0000C94D5060C94D5060C94D5060000028A53
:1000B000048A1F141A16041D1B062021150807099F
:1000C000190522231C170A0B11001E292BE0E1C180
:1000D000E22C2425180C0E0D100031352A28E7E5F6
:1000E000C2E626271213330F36002D2E302F343858
:1000F00037003B00000000004C003C3D00000000C9
:1001000000003E3F0000005000003A2900000001BE
:1001100000004041004A5251000000002A2801001E
:10012000010042434D00004F4E00444500000000D6
:100130004B00FE0000F5F4000000FF00000000008E
:1001400000000000FB0000F20000FD0000000001C4
:1001500000000000FAF9F0F10000000000000100CA
:1001600001000000FC0000F34E0000000000000051
:100170004B0025630025730D0A00522C310D0A0037
:1001800053592C464646340D0A0053482C30303320
:10019000430D0A00537E2C360D0A0053572C38307D
:1001A00030300D0A00534D2C340D0A0053532C4BA4
:1001B0006579626F6172642F4D6F7573650D0A000A
:1001C000532D2C546D6B42540D0A0053462C310DA7
:1001D0000A002D2D2D0D0A0045786974696E67207F
:1001E000636F6E666967206D6F6465202E2E2E0A20
:1001F000002B0D0A00760D0A0024242400456E749D
:100200006572696E6720636F6E666967206D6F64E3
:1002100065202E2E2E0A00522C310D0A0053522C2E
:100220005A0D0A00555342206D6F64650A004175EE
:10023000746F206D6F64650A00253032750A0025E1
:100240003032753A00253032753A004241543A2036
:1002500025756D560900757074696D653A202530F5
:10026000327520253032753A253032753A253032D4
:10027000750A00564255533A2025580A0052656DBA
:100280006F746557616B657570456E61626C65640E
:100290003A2025580A000A003F004C4F57004449B5
:1002A000534348470043484152470046554C4C0091
:1002B000626174746572793A200055534220537418
:1002C0006174653A2025730A00636F6E6669675F23
:1002D0006D6F64653A2025580A00726E34325F6192
:1002E00075746F636F6E6E656374696E6728293A03
:1002F0002025580A00726E34323A2025730A0066AF
:100300006F7263655F7573623A2025580A007072D8
:100310006F746F636F6C3A2025730A000A2D2D2DC0
:100320002D2D20524E2D343220696E666F202D2DDA
:100330002D2D2D0A00753A20202020202020746FBA
:1003400067676C6520466F72636520555342206D68
:100350006F64650A00703A20202020202020706100
:100360006972696E670A00536C636B3A2020202023
:10037000524E2D343220696E697469616C697A65F8
:100380000A0044656C3A2020202020656E74657256
:100390002F6578697420524E2D343220636F6E665B
:1003A0006967206D6F64650A00623A202020202072
:1003B00020206261747465727920766F6C74616755
:1003C000650A00693A20202020202020524E2D343A
:1003D0003220696E666F0A000A0A2D2D2D2D2D2000
:1003E000426C7565746F6F746820524E2D343220E4
:1003F00048656C70202D2D2D2D2D0A00253032756D
:100400003A253032753A253032750925756D560A10
:10041000004C4544207374617475733A2025303262
:10042000580A002025303258002563005B735D00B8
:100430004B6579626F6172642073746172740A0033
:10044000524E2D343220696E69740A000A555342A7
:1004500020696E69740A005B445D005B435D0012B5
:1004600003480048004B00420020006D006F00640C
:100470000000000E0374002E006D002E006B002E95
:100480000000000403090409028D00050100A032E8
:1004900009040000010301010009211101000122EA
:1004A00040000705810308000A0904010001030157
:1004B0000200092111010001224D000705820308F5
:1004C000000A0904020001030000000921110100D3
:1004D000012236000705830308000A09040300020D
:1004E00003000000092111010001222200070584F8
:1004F0000320000107050403200001090404000192
:1005000003000000092111010001223900070585BF
:10051000032000011201100100000008EDFE42421C
:1005200004010102000105010906A101050719E006
:1005300029E71500250195087501810205081901B3
:10054000290595057501910295017503910105072E
:10055000190029F71500250195F875018102C006DB
:1005600031FF0974A1010975150026FF009520755A
:100570000881020976150026FF0095207508910272
:10058000C005010980A101850216810026B7001A65
:1005900081002AB700751095018100C0050C090182
:1005A000A1018503160100269C021A01002A9C0263
:1005B000751095018100C005010902A1010901A181
:1005C0000005091901290515002501950575018109
:1005D0000295017503810105010930093115812555
:1005E0007F95027508810609381581257F9501756B
:1005F000088106050C0A38021581257F95017508CA
:100600008106C0C005010906A101050719E029E717
:100610001500250195087501810295017508810174
:1006200005081901290595057501910295017503C4
:1006300091010507190029FF150026FF0095067591
:10064000088100C0636F6E73756D65723A20253046
:1006500034580A0073797374656D3A202530345824
:100660000A000A002530325820006B6579626F61FC
:1006700072643A20004C45443A20253032580A0032
:10068000253032583A202530386225730A00722FFF
:10069000632030313233343536370A0064656C5F9D
:1006A0006B65795F6269743A2063616E27742064B8
:1006B000656C3A20253032580A006164645F6B65CE
:1006C000795F6269743A2063616E277420616464A3
:1006D0003A20253032580A004F6E6573686F743ABD
:1006E0002074696D656F75740A00290A002575000C
:1006F0002F002575005D280025640020002564007A
:10070000200025640020002564007C00253032583C
:10071000006D6F7573656B6579205B62746E7C78B4
:100720002079207620685D287265702F61636C29BE
:100730003A205B006D6B5F776865656C5F74696D0F
:10074000655F746F5F6D6178203D2025640A006DE0
:100750006B5F776865656C5F6D61785F7370656509
:1007600064203D2025640A006D6B5F74696D655FD0
:10077000746F5F6D6178203D2025640A006D6B5FAA
:100780006D61785F7370656564203D2025640A00A3
:100790006D6B5F696E74657276616C203D202564B7
:1007A0000A006D6B5F64656C6179203D2025640AE9
:1007B000006D6B5F776865656C5F74696D655F740C
:1007C0006F5F6D6178203D2025640A006D6B5F7757
:1007D0006865656C5F6D61785F7370656564203D09
:1007E0002025640A006D6B5F74696D655F746F5FCF
:1007F0006D6178203D2025640A006D6B5F6D617826
:100800005F7370656564203D2025640A006D6B5F31
:10081000696E74657276616C203D2025640A006DF6
:100820006B5F64656C6179203D2025640A000A00D5
:10083000257500363A20776865656C5F74696D656B
:100840005F746F5F6D61783A20000A00257500358E
:100850003A20776865656C5F6D61785F7370656578
:10086000643A20000A00257500343A2074696D65E9
:100870005F746F5F6D61783A20000A002575003360
:100880003A206D61785F73706565643A20000A00F4
:10089000257500323A20696E74657276616C286D38
:1008A00073293A20000A00257500313A2064656CEE
:1008B0006179282A31306D73293A20000A092D20E8
:1008C00056616C756573202D0A004D3E004D256400
:1008D0003E20003F007365742064656661756C742A
:1008E0000A00433E200077686572652064656C7479
:1008F000613A20637572736F723D25642C207768AE
:1009000065656C3D25640A53656520687474703AAA
:100910002F2F656E2E77696B6970656469612E6F24
:1009200072672F77696B692F4D6F7573655F6B65A4
:1009300079730A000A092D204D6F7573656B65790F
:10094000202D0A4553432F713A09717569740A3194
:100950003A0964656C6179282A31306D73290A324D
:100960003A09696E74657276616C286D73290A3371
:100970003A096D61785F73706565640A343A097489
:10098000696D655F746F5F6D61780A353A097768E4
:1009900065656C5F6D61785F73706565640A363A92
:1009A00009776865656C5F74696D655F746F5F6D0D
:1009B00061780A0A703A097072696E742076616C07
:1009C0007565730A643A09736574206465666175B8
:1009D0006C74730A75703A092B310A646F776E3A3A
:1009E000092D310A706775703A092B31300A70672A
:1009F000646F776E3A092D31300A0A737065656449
:100A0000203D2064656C7461202A206D61785F73DD
:100A100070656564202A2028726570656174202FD6
:100A20002074696D655F746F5F6D6178290A003F9E
:100A3000004D3E2000433E20004C25640A000A0978
:100A40002D20436F6E736F6C65202D0A4553432F25
:100A5000713A09717569740A6D3A096D6F7573653C
:100A60006B65790A000A092D204D61676963202DA5
:100A70000A643A0964656275670A783A09646562CE
:100A80007567206D61747269780A6B3A09646562F2
:100A90007567206B6579626F6172640A6D3A0964EB
:100AA00065627567206D6F7573650A763A097665BC
:100AB0007273696F6E0A733A097374617475730A9D
:100AC000633A09636F6E736F6C65206D6F64650ABE
:100AD000302D343A096C61796572302D34284631F5
:100AE000302D4634290A506175733A09626F6F746C
:100AF0006C6F616465720A6E3A094E4B524F0A0080
:100B00003F004E4B524F3A206F66660A004E4B52E2
:100B10004F3A206F6E0A0074696D65725F7265618D
:100B200064333228293A202530346C580A006B652A
:100B300079626F6172645F6E6B726F3A2025580A3A
:100B4000006B6579626F6172645F69646C653A20FD
:100B500025580A006B6579626F6172645F70726F0D
:100B6000746F636F6C3A2025580A00686F73745F66
:100B70006B6579626F6172645F6C65647328293A92
:100B80002025580A000A092D2053746174757320BA
:100B90002D0A004743433A20382E322E302041564A
:100BA000522D4C4942433A20322E302E30204156AD
:100BB000525F415243483A20617672350A004F50E5
:100BC00054494F4E533A204C554641204D4F5553B2
:100BD000454B45592045585452414B455920434FA8
:100BE0004E534F4C4520434F4D4D414E44204E4BAC
:100BF000524F20343039360A004255494C443A208D
:100C000034363530643265352D6469727479202844
:100C100031383A33313A313220536570202039204F
:100C200032303138290A005649443A203078464556
:100C3000454428742E6D2E6B2E29205049443A20AD
:100C40003078343234322848484B42206D6F642962
:100C5000205645523A203078303130340A0044452D
:100C600053433A20742E6D2E6B2E206B6579626F84
:100C7000617264206669726D7761726520666F7259
:100C80002048484B42206D6F640A000A092D205607
:100C9000657273696F6E202D0A000A6D6F7573653A
:100CA0003A206F66660A000A6D6F7573653A206FA9
:100CB0006E0A000A6B6579626F6172643A206F6632
:100CC000660A000A6B6579626F6172643A206F6E22
:100CD0000A000A6D61747269783A206F66660A00CC
:100CE0000A6D61747269783A206F6E0A000A646551
:100CF0006275673A206F6E0A000A64656275673A2A
:100D0000206F66660A000A0A626F6F746C6F616416
:100D100065722E2E2E2000433E20000011241FBE9F
:100D2000CFEFDAE0DEBFCDBF04B603FE27C080916F
:100D3000D6039091D703A091D803B091D9038730FF
:100D4000904BA740B04BD1F41092D6031092D7032A
:100D50001092D8031092D90314BE84B7877F84BF42
:100D60000FB6F894A8958091600088618093600028
:100D7000109260000FBEE0E0F8E3099511E0A0E0FA
:100D8000B1E0E6E3FFE502C005900D92A03AB1079D
:100D9000D9F723E0A0EAB1E001C01D92A63DB20759
:100DA000E1F70E947D100C94362F0C9400000FB6D2
:100DB00080959AE0F8947BE27A95F1F708F0589ADA
:100DC00008F4589886959A95B1F70FBE08950FB616
:100DD00080E8F894499BFECF4999FECF96E19A9519
:100DE000F1F79CE29A95F1F7869549998068C8F7E2
:100DF0000FBE08950FB680E8F89496E19A95F1F742
:100E00009CE29A95F1F7869549998068C8F796E132
:100E10009A95F1F7499BFECF0FBE0895FF93EF938C
:100E2000E091A001F091A101309709F00995EF91AF
:100E3000FF910895FC018591803011F0EFDFFBCF29
:100E40000895FF27E0E230E247FF0CC0419597FF8D
:100E500009C0EDE26095709580959095611D711DBA
:100E6000811D911D27FF02C0219530E350E2AA2782
:100E7000660F771F881F991FAA1FA41710F0A41BC5
:100E800063955A95A9F7AA3008F0A95FA05DAF93C2
:100E9000F395611571058105910541F7ED3211F466
:100EA000EF93F395F21718F43F93F395FBCF8F91DF
:100EB000B5DFFA95E1F70895E991F99185918030D0
:100EC00021F0853219F0AADFF9CF089520E0E894E7
:100ED00055915532C1F3503311F4689455915A33FA
:100EE00048F4505390F3220F022E220F220F200DB0
:100EF000250FF4CF0EF4219589919991533619F36A
:100F0000533729F1533559F1BC0188279927E894C3
:100F10005C3621F48991999168945591543639F44D
:100F200046EF7EF077FF0DC08FEF9FEF0AC0553779
:100F30004AE039F0583540E121F0523642E009F0FC
:100F40000895FF93EF937DDFEF91FF91B7CFFF936C
:100F5000EF93FC0181918030B9F360DFFBCFFF9309
:100F6000EF9368DFF1CFDF93CF93CDB7DEB7259650
:100F7000A3DFCF91DF91089514B88FEF85B9549A0C
:100F80005C9808958FEF84B980E485B9549A5C9A8F
:100F90008FE19EE40197F1F700C0000008958FEF04
:100FA00084B980E485B957985F9A87B18F7387B900
:100FB00088B1806C88B92E9A2F980E94BC07AAEA43
:100FC000B1E01C9211961C92119712961C921297E6
:100FD00013961C92139714961C92149715961C92B4
:100FE000159716961C92169717961C921797E2EA79
:100FF000F1E010821182128213821482158216820D
:101000001782B093B501A093B401F093B301E093BC
:10101000B2010895EF92FF920F931F93CF93DF9346
:101020008091B2019091B3012091B4013091B5014A
:101030003093B3012093B2019093B5018093B40132
:101040005C9B0E94C207D0E0C0E001E010E0EE240B
:10105000EA94F12C60E030E020E085B1422F807C02
:101060008C2B862B85B9AAE1AA95F1F700C0E091F7
:10107000B201F091B301EC0FFD1F808190E0022ED0
:1010800002C0959587950A94E2F780FD2F9AB5E303
:10109000BA95F1F7000076B52E98EAE1EA95F1F7F6
:1010A00000C0C80101C0880F4A95EAF74091B40119
:1010B0005091B501FA01EC0FFD1F4F9B72C0809556
:1010C00090818923808386B5E72FF0E0871708F4A5
:1010D0006BC086B590E08E1B9F0B069758F0E09191
:1010E000B201F091B301EC0FFD1F80814C0F5D1F29
:1010F000FA018083FAE1FA95F1F700C02F982E9A51
:101100008BE291E00197F1F700C000002F5F3F4FA5
:10111000685F2830310509F0A0CFA091B401B091EB
:10112000B501AC0FBD1FE091B201F091B301EC0F1E
:10113000FD1F9C918081981751F00E94C3256093F8
:10114000B6017093B7018093B8019093B9012196CD
:10115000C830D10509F07ECF5C9B1BC08091CD03C8
:10116000853021F08091CD03811113C06091B601CB
:101170007091B7018091B8019091B9010E94F92551
:10118000613177428105910520F00E94BC070E94E1
:10119000462581E0DF91CF911F910F91FF90EF9055
:1011A00008959081892B8ECF86B5D701AE1BBF0BDA
:1011B0008A0F9B2F911D91CF2091B4013091B501E1
:1011C000820F932F911DFC01808108950C94C2071A
:1011D0000C94BC07569A81FF02C05E9A08955E98EF
:1011E000089588E08093CC001092CD00E9ECF0E007
:1011F000808180698083808188608083EAECF0E070
:1012000080818083EBECF0E080818083559A5D984B
:10121000789408954091BB019091BA014917D1F09B
:10122000292F30E0F901E454FE4F80812F5F3F4FBA
:1012300033279F5F9093BA01642F70E0261B370B12
:10124000491730F4233031050CF05D9890E0089593
:101250003395F8CF8FEF9FEF08959091C80095FFD9
:10126000FCCF8093CE0008952F932FB72F933F93F9
:101270004F935F938F939F93EF93FF93E091BB0105
:1012800081E08E0F2091BA01281741F09091CE0095
:10129000F0E0E454FE4F90838093BB013091BB019A
:1012A000432F50E0822F90E0841B950B321770F48F
:1012B00003970CF45D9AFF91EF919F918F915F914D
:1012C0004F913F912F912FBF2F9118959395F0CF6C
:1012D0008091D602089508950895CF93DF938D3CB1
:1012E000910509F44CC068F5D0E0C1E0853B91055B
:1012F000B9F050F4C0E1833B910591F0C0E2843B2A
:10130000910571F0C0E00CC0C4E0873B910541F04D
:10131000C2E0873B910520F0C8E08C3C910591F735
:101320008DEF0E942D0983E00E942D0983E00E9429
:101330002D098D2F0E942D098C2FDF91CF910C94B8
:101340002D09D0E28A3E9105E9F250F4D0E4823EC4
:101350009105C1F2D0E1893E9105A1F2D0E0D2CF52
:10136000D4E0813222E0920769F2D1E0833222E0B8
:10137000920741F2D2E08A38914081F7C3CFD0E89A
:10138000C1CFCF93DF93EC018DEF0E942D0985E053
:101390000E942D0982E00E942D0988810E942D095A
:1013A00089810E942D098A810E942D098B81DF91FC
:1013B000CF910C942D09CF93DF93EC018DEF0E9418
:1013C0002D0989E00E942D0981E00E942D09888164
:1013D0000E942D0980E00E942D098A810E942D091A
:1013E0008B810E942D098C810E942D098D810E9484
:1013F0002D098E810E942D098F81DF91CF910C9450
:101400002D090895089508958091D60208950C94A9
:101410000A09EF92FF920F931F93CF938C010E94C2
:10142000B7257C01C0E0C7010E94CF258017910736
:1014300088F40E940A098F3F980751F08D3041F0DF
:101440008A3041F0EC2FF0E0E254FD4F8083CF5F13
:10145000C73149F7EC2FF0E0E254FD4F10828EEBDC
:1014600092E0CF911F910F91FF90EF9008950C940F
:101470002D0981B3881F8827881F0895879A8F9A1E
:10148000089585B7806885BF85B7806885BF0E944D
:101490003E0A86988E9A81988998559A5D980C9400
:1014A000F108879A8F9808958FB186958170089575
:1014B0008FB186FB882780F908958093D60208951E
:1014C000CF93DF93EC01FE0184912196811103C03B
:1014D000DF91CF9108950E942D09F5CFCF93DF932F
:1014E000C2E7D1E00E940A098F3F980719F4DF9103
:1014F000CF9108959F938F93DF93CF930E94B3076B
:101500000F900F900F900F90EDCF0E94600A2FEF79
:1015100089E698E1215080409040E1F700C000004A
:1015200084E690E00E94090A8093BC029093BD0279
:101530009F938F9385E791E09F938F930E94B307CA
:101540000E946E0A0F900F900F900F908091BC0236
:101550009091BD0208950E944618909315018093C2
:1015600014010E941F1E80E091E00E9441180E9419
:10157000510A0E94580A8111FCCF8DEF91E00E9420
:101580001A072FEF85EB95E3215080409040E1F75B
:1015900000C0000089EF91E00E94850AEFEFFBE4B4
:1015A0002DE1E150F0402040E1F700C000000E9432
:1015B0006E0A85EF91E00E94850AFC0180818637E2
:1015C00021F081EF91E00C94850A089588ED91E077
:1015D0000E941A0782ED91E00E94850A0E943E0A4D
:1015E0000E941F1E80911401909115010C944118C6
:1015F0000E94BA0F809121018093C80308954F92F1
:101600005F926F927F928F929F92AF92BF92CF9292
:10161000DF92EF92FF920F931F93CF93DF9392E0AD
:10162000B92E03E214E029E2E22E24E0F22EAA24ED
:10163000A39433E0932E41E1C42E44E0D42E0E94C3
:10164000070AEC01019609F0ADC08091DB0281111F
:1016500019C08091DA028111E7C00E94540A8111F9
:10166000E3C00E9446188A50914061F00E941F1EFC
:10167000809121018093C803109221018AE091E0BA
:101680000E9441188091D7029091D8020E94CF25E4
:10169000893E23E0920708F469C028EE33E0B901DF
:1016A0000E94E62E629FA001639F500D729F500D15
:1016B00011248091D7029091D802840F951F9093A6
:1016C000D8028093D7020E945710833009F0BBC024
:1016D00081E00E94A90F0E94C3256B017C0128EEC6
:1016E00033E040E050E00E940E2F29013A018CE3E4
:1016F000882E912CA12CB12CCA01B901A50194010D
:101700000E940E2F672B682B692B81F50E942010F9
:101710002091B70320FF2AC09F938F931F921F929F
:10172000C301B20120E13EE040E050E00E940E2FF4
:10173000A50194010E940E2F3F932F93C701B6017C
:1017400020E83EEE46E350E00E940E2F1F922F93BA
:101750008CEF93E09F938F930E94B3078DB79EB752
:101760000A960FB6F8949EBF0FBE8DBF0E94540A12
:1017700081116BC00E94580A882309F466C06E9AD2
:101780007698DF91CF911F910F91FF90EF90DF90AE
:10179000CF90BF90AF909F908F907F906F905F9011
:1017A0004F9008958091D902813011F1882339F04A
:1017B000823019F1833031F11092D90240CFCE3FFF
:1017C000D10519F4A092D9023ACFC038D10558F406
:1017D000DF93CF93FF92EF920E94B3070F900F9089
:1017E0000F900F902CCFDF93CF931F930F93F4CFD5
:1017F000229711F7B092D90222CF2197E9F6909261
:10180000D9021DCF8091B70380FF0AC0DF93CF9329
:10181000DF92CF920E94B3070F900F900F900F901E
:101820008C2F0E945D0AC8CF0E94461886519140B5
:1018300009F428CF0E941F1E8091C80380932101C4
:1018400086E191E01DCF80E044CF6E9A769A99CFE1
:101850004F925F926F927F928F929F92AF92BF92C0
:10186000CF92DF92EF92FF92CF93833109F471C050
:10187000B8F48B30E9F130F4853009F4A1C1C0919E
:10188000DB0258C08C3009F471C08131C1F70E946D
:101890004618C1E08651914009F04CC0C0E04AC0F2
:1018A000883331F190F4883151F78091DB02811156
:1018B000F5CFC091DA02CC2309F4DFC18EE292E0C9
:1018C0000E941A071092DA0235C0873409F4E4C185
:1018D0008C34A9F60E94390AC82F882309F4D5C18F
:1018E0000E94AB0A81E08093C7038093DB0222C091
:1018F00088ED93E00E941A0783EC93E00E941A0798
:1019000089EA93E00E941A0782E893E00E941A078E
:1019100087E693E00E941A0785E593E00E941A0784
:10192000C091DB02CC2311F0C1E004C085E393E059
:101930000E941A078C2FCF91FF90EF90DF90CF90ED
:10194000BF90AF909F908F907F906F905F904F90DF
:1019500008950E94AB0A8DE192E00E94850A87E11A
:1019600092E00E94850A0E94E60ADECF8CE193E0B5
:101970000E941A070E9446188A50914009F48FC0AD
:1019800080E391E09F938F938EE093E09F938F93FA
:101990000E94B3078091DA021F928F938FEF92E03B
:1019A0009F938F930E94B3070E94540A2DB73EB7AE
:1019B000285F3F4F0FB6F8943EBF0FBE2DBF811179
:1019C00071C00E94580A811170C08EE391E09F930C
:1019D0008F9385EF92E09F938F930E94B3070E94AD
:1019E000390A1F928F938AED92E09F938F930E9402
:1019F000B3078091DB021F928F9389EC92E09F9353
:101A00008F930E94B3078091CD032DB73EB7245F1B
:101A10003F4F0FB6F8943EBF0FBE2DBF882309F489
:101A200047C08091CD03813009F445C08091CD033A
:101A3000823009F443C08091CD03833009F441C062
:101A40008091CD03843009F43FC08091CD0385306F
:101A5000F1F18BE791E09F938F938AEB92E09F9354
:101A60008F930E94B30780EB92E09F938F930E9425
:101A7000B3070E9457100F900F900F900F900F9088
:101A80000F90813009F493C0882321F1823009F44A
:101A900091C0833009F491C088E992E01DC08AE2C8
:101AA00091E070CF85E391E092CF89E391E08FCF11
:101AB00085E591E0D0CF80E691E0CDCF88E691E05A
:101AC000CACF8BE491E0C7CF80E791E0C4CF81E437
:101AD00091E0C1CF8BEA92E09F938F930E94B3076E
:101AE0000F900F9086E992E09F938F930E94B30727
:101AF0008091CB031F928F938DE792E09F938F93FA
:101B00000E94B3078091D90081701F928F9383E761
:101B100092E09F938F930E94B3070E94C3256B01AD
:101B20007C0128EE33E040E050E00E940E2F2901B6
:101B30003A013CE3832E912CA12CB12CC301B201BC
:101B4000A50194010E940E2F7F936F93C301B201F0
:101B500020E13EE040E050E00E940E2FA5019401FC
:101B60000E940E2F3F932F93C701B60120E83EEE4F
:101B700046E350E00E940E2F1F922F93C701B6013B
:101B800020E03CE546E255E00E940E2F3F932F9364
:101B900086E592E09F938F930E94B3078DB79EB71F
:101BA00044960FB6F8949EBF0FBE8DBFBDCE85EA9A
:101BB00092E092CF8EE992E08FCF8AE992E08CCFCB
:101BC0000E94C3256B017C0128EE33E040E050E029
:101BD0000E940E2F49015A010E9420109F938F935B
:101BE0008BE492E09F938F930E94B307C701B601E5
:101BF00020E83EEE46E350E00E940E2F5F934F93A5
:101C00003F932F9385E492E09F938F930E94B307B5
:101C1000C501B40120E13EE040E050E00E940E2FFB
:101C20002CE3C22ED12CE12CF12CA70196010E94AD
:101C30000E2F5F934F933F932F938FE392E09F93E9
:101C40008F930E94B307C501B401A70196010E94BA
:101C50000E2F9F938F937F936F9389E392E09F93CF
:101C60008F930E94B3072DB73EB72A5E3F4F0FB642
:101C7000F8943EBF0FBE2DBF57CE84E292E00E9483
:101C80001A0781E08093DA024FCE0E94E60A109292
:101C9000C7031092DB0248CE8091DB02811102C0A3
:101CA0000E94AB0A8BEC91E00E94850A80EC91E0E7
:101CB0000E94850A8CEA91E00E94850A85EA91E0FB
:101CC0000E94850A8BE991E00E94850A84E991E0EF
:101CD0000E94850A8AE891E00E94850A80E891E0E6
:101CE0000E94850A8AE791E00E94850A8091DB02C2
:101CF00081111ACE38CECF93C82F0E947A248272D7
:101D0000ECEFEC0FE93408F0DDC0F0E0E85CF04DFA
:101D10000C94302FCBE18C2F0E94370A81E0CF91B9
:101D20000895C1E68823B9F3C1E4F5CFC2E688235C
:101D300091F3C2E4F0CFC3E6882369F3C3E4EBCFA9
:101D4000C4E6882341F3C4E4E6CFC5E6882319F34B
:101D5000C5E4E1CFC6E68823F1F2C6E4DCCFC7E6EE
:101D60008823C9F2C7E4D7CFC8E68823A1F2C8E424
:101D7000D2CFC9E6882379F2C9E4CDCFCAE6882359
:101D800051F2CAE4C8CFCBE6882329F2CBE4C3CF13
:101D9000CCE6882309F4BFCFCCE4BDCFCDE68823C1
:101DA00009F4B9CFCDE4B7CFCEE6882309F4B3CF99
:101DB000CEE4B1CFCFE6882309F4ADCFCFE4ABCFEB
:101DC000C0E7882309F4A7CFC0E5A5CFC1E78823E2
:101DD00009F4A1CFC1E59FCFC2E7882309F49BCFC7
:101DE000C2E599CFC3E7882309F495CFC3E593CF24
:101DF000C4E7882309F48FCFC4E58DCFC5E78823D6
:101E000009F489CFC5E587CFC6E7882309F483CFD6
:101E1000C6E581CFC7E7882309F47DCFC7E57BCF2F
:101E2000C8E7882309F477CFC8E575CFC9E78823C9
:101E300009F471CFC9E56FCFCAE7882309F46BCFE6
:101E4000CAE569CFC1E3882309F465CFC1E263CF56
:101E5000C2E3882309F45FCFC0E45DCFC3E38823E6
:101E600009F459CFC3E257CFC4E3882309F453CF11
:101E7000C4E251CFC5E3882309F44DCFC5E24BCF6F
:101E8000C6E3882309F447CFCEE545CFC7E38823CF
:101E900009F441CFC6E23FCFC8E3882309F43BCF22
:101EA000CAE239CFC9E3882309F435CFC8E233CF7A
:101EB000C0E3882309F42FCFC9E22DCFC8E02BCF90
:101EC000C9E029CFC0E227CF882309F424CFCFE58A
:101ED00022CFCDE3882309F41ECFCBE21CCFCBE584
:101EE000882309F418CFCBE716CFCDE5882309F472
:101EF00012CFCDE710CFCCE5882309F40CCFCCE787
:101F00000ACFCBE3882309F406CFCAE304CFC7E2A4
:101F1000882309F400CFC2E2FECEC0E6882309F48C
:101F2000FACECEE7F8CECCE2882309F4F4CECCE3A7
:101F3000F2CECEE2882309F4EECECEE3ECCECFE2B1
:101F4000882309F4E8CECFE3E6CEC0E0E4CECAE0D1
:101F5000E2CE833019F4859A7D9A0895813019F480
:101F6000859A8D980895823019F4859A8D9A0895EE
:101F70008598F7CF81E00E94A90F2FEF81EE94E0C2
:101F8000215080409040E1F700C0000082E00E94B4
:101F9000A90F2FEF81EE94E0215080409040E1F7AF
:101FA00000C0000081E00E94A90F2FEF81EE94E0B5
:101FB000215080409040E1F700C0000082E00E9484
:101FC000A90F2FEF81EE94E0215080409040E1F77F
:101FD00000C0000080E00E94A90F80EC80937C008C
:101FE00087E080937A0081E980937E0081E080938E
:101FF0007F008BE380937D00849A8C980895809174
:10200000D90080FF1BC090B331B385988D9AEFE95A
:10201000FFE03197F1F700C000008FB185FB882702
:1020200080F921E0822720B32F7D9072292B20BBDD
:1020300091B39F7D3072932B91BB089580E00895FA
:10204000CF93DF9300D0CDB7DEB7849A8C9A80917E
:102050007A00806880937A008FE99FE00197F1F71A
:1020600000C0000080917A00806480937A008091A3
:102070007A0086FDFCCF80917800909179009A8358
:10208000898380917A008F7780937A00849A8C98E4
:1020900029813A8145E0429FC001439F900D112460
:1020A000805591090F900F90DF91CF910895809105
:1020B000D90080FD0C94FF0F0E9420108C3A2DE077
:1020C000920728F481E08093DC0283E0089585374D
:1020D0009E4020F01092DC0282E008958091DC02A4
:1020E0008823D1F3F2CFCF93C82F0E94D7068C2F2D
:1020F0000E94F51080E0CF91089584B7877F84BF58
:102100000FB6F894A8958091600088618093600074
:10211000109260000FBE80E890E00FB6F8948093B4
:102120006100909361000FBE0E946B150E94C8155C
:102130008091E20084608093E20083E790E10E9456
:102140001525509A589A5198599A78948FEF9091F2
:10215000CD038150943041F0EFE7FEE33197F1F782
:1021600000C000008111F3CF8CE494E00E941A07B4
:102170000E94410A0E94F80A80E494E00E941A0733
:102180000E94081980E394E00E941A070E94540AF2
:10219000882321F08091CD03853029F00E940C190D
:1021A0000E94FF0AF3CF8CE294E00E941A070E947B
:1021B000E8080E9446250E9446250E9446250E9466
:1021C00046250E9446250E9446250E94462580916C
:1021D000CB038823D9F20E946F258823B9F20E948D
:1021E000C713D4CF8091010308959FB7F89410923C
:1021F000E0029FBF9091CD03943009F049C0209137
:10220000E9002F709091EC0090FD30C090E0922B8F
:1022100024E02093E9002091EB0020FF36C02091BC
:10222000EE0027FF32C02091DD02222321F0209111
:10223000E80025FF2AC01092DD0226E03091E80078
:1022400035FF16C08093F1008091E80085FD29C01C
:102250008091E80080FFFCCF8091E8008E7780932A
:10226000E8009F709093E90080E0089590E8CFCF58
:102270003091CD03343049F43091EB0035FD05C089
:10228000215041F481E08093DD029F709093E9003A
:102290008FEF0895EFE9FFE03197F1F700C00000FC
:1022A000CDCF8FB7F89421E02093E0028FBFD9CF34
:1022B000CF93DF9300D00F92CDB7DEB79C01809112
:1022C000CD03843019F593E099833B832A8390935F
:1022D000E9008FEF9091E800815095FD06C095EDE3
:1022E0009A95F1F700008111F5CF8091E80085FF04
:1022F0000DC050E040E063E070E0CE0101960E9426
:10230000DD138091E8008E778093E8000F900F90A6
:102310000F90DF91CF910895CF93DF9300D00F926C
:10232000CDB7DEB72091CD03243021F522E02983FB
:102330009B838A8383E08093E9008FEF9091E8008C
:10234000815095FD06C095ED9A95F1F70000811139
:10235000F5CF8091E80085FF0DC050E040E063E0DC
:1023600070E0CE0101960E94DD138091E8008E7727
:102370008093E8000F900F900F90DF91CF91089518
:102380009C018091CD038430F9F482E08093E900D0
:102390009FEF8091E800915085FD06C085ED8A95FC
:1023A000F1F700009111F5CF8091E80085FF0CC096
:1023B00050E040E065E070E0C9010E94DD138091CB
:1023C000E8008E778093E8000895CF93DF93EC01C7
:1023D0008091CD038430F9F4809120018823F1F0BD
:1023E000809121018823D1F085E08093E9008FEF6F
:1023F0009091E800815095FD06C09AE29A95F1F718
:1024000000C08111F5CF8091E80050E040E060E22B
:1024100070E085FD1AC0DF91CF91089581E080932F
:10242000E9008FEF9091E800815095FD06C095ED91
:102430009A95F1F700008111F5CF8091E80085FFB2
:10244000EACF50E040E068E070E0CE010E94DD138A
:102450008091E8008E778093E80080E2FE01A1EE93
:10246000B2E001900D928A95E1F7D5CF8BE594E02B
:102470000E941A078091CC03811109C00E946B153C
:102480000E94C8158091E20084608093E200089564
:1024900087E594E00E941A071092CC0308950895EE
:1024A0002091DE022F5F822F62E30E94DA2E9923B1
:1024B00019F02093DE0208951092DE028091E0026E
:1024C0008823E9F08091CD038430B9F49091E9003C
:1024D0009F708091EC0080FD13C080E0892B94E018
:1024E0009093E9009091EB0090FF04C09091EE0072
:1024F00097FD0AC08F708093E9001092E002089562
:1025000080E8ECCF1092F1009091E80095FDFACFB1
:102510009091E80090FFEECF9091E8009E77909325
:10252000E800E8CF42E061EC81E00E94E91442E07B
:1025300061EC82E00E94E91442E061EC83E00E94D9
:10254000E91442E261EC84E00E94E91442E261ECA9
:1025500085E00C94E9148091CF03833009F455C0D1
:1025600030F4813071F1823009F491C008958A30DD
:1025700009F47DC08B3009F463C0893009F044C090
:102580008091CE03813209F03FC08091D2039091B7
:10259000D303009711F00497B9F58091E800877F85
:1025A0008093E8008091E80082FF2AC08091F100CA
:1025B000809301038091E8008B778093E8000C946E
:1025C0001D158091CE03813AF9F48091E800877F50
:1025D0008093E8008091D2039091D303892B61F41A
:1025E00060E281EE92E070E00E942C148091E8009D
:1025F0008B778093E800089560E090E080E0F3CF6F
:102600008091CD038111CECF08958091CE03813A80
:10261000D9F78091D2039091D303892BA9F78091A8
:10262000E800877F8093E8008091E80080FFFCCF7E
:10263000809120018093F1008091E8008E77BDCFDA
:102640008091CE03813201F78091D2039091D30320
:10265000892BD1F68091E800877F8093E8000E9463
:102660001D158091D003809320010C941F1E809132
:10267000CE03813249F68091E800877F8093E8009D
:102680000E941D158091D1038093020308958091CB
:10269000CE03813A09F0B8CF8091E800877F80931C
:1026A000E8008091E80080FFFCCF80910203C2CF58
:1026B000809101038093DF021092010380E00E9469
:1026C000EA080E94B9190C941F1E0C9458130E941A
:1026D00083258091DF028093010308950C94671392
:1026E000292F33272330310521F168F421303105BA
:1026F00009F443C02230310509F444C090E080E081
:1027000030E020E026C02132310551F1223231057E
:10271000A9F7653098F770E0FB01EE0FFF1FEE5749
:10272000FE4F2081318163587E4FFB01808190E014
:1027300010C099278130910581F0009729F0029708
:10274000E9F6EFE5F4E002C0E3E8F4E0849190E01C
:102750009F01FA01318320830895E3E7F4E0F6CF87
:10276000653060F6E62FF0E0EE0FFF1FE457FE4FF6
:102770002081318189E090E0ECCF82E190E024E19A
:1027800035E0E7CF8DE890E027E834E0E2CF80E164
:1027900089BD82E189BD09B400FEFDCF8091D800DA
:1027A0008F7D8093D8008091E00082608093E0006C
:1027B0008091E00081FDFCCF0895AF92BF92CF924F
:1027C000DF92FF920F931F93CF93DF936C01EB0186
:1027D0008A010E943C15F82E811123C001151105B4
:1027E00039F0F80180819181C81BD90BC80ED91E20
:1027F000B12CA12C2097A9F08091E80085FD22C082
:102800008091E8008E778093E80001151105A1F012
:10281000F80180819181A80EB91EB182A08285E065
:10282000F82E8F2DDF91CF911F910F91FF90DF90A8
:10283000CF90BF90AF9008950E943C158823D1F2AD
:10284000F82EEFCFF60181916F018093F10021976F
:10285000FFEFAF1ABF0ACECFFC018091D403909155
:10286000D50386179707A0F06115710529F490919B
:10287000E8009E779093E80090E06115710551F4AF
:10288000911108C08091E80082FF34C080E0089573
:10289000BC01F2CF8091CD038823C1F18530C1F115
:1028A0008091E80083FD30C08091E80082FDEACF8E
:1028B0008091E80080FFE1CF8091F3002091F20049
:1028C000382F6115710519F02830310558F091E065
:1028D0002830310509F090E02091E8002E77209310
:1028E000E800CBCF81918093F100615071092F5F97
:1028F0003F4FE7CF8091CD03882341F0853041F0F1
:102900008091E80083FFBECF81E0089582E00895C2
:1029100083E00895FC018091D4039091D50386173C
:102920009707A0F06115710529F48091E8008E7772
:102930008093E80090E06115710551F4911108C091
:102940008091E80082FF35C080E00895BC01F2CF9D
:102950008091CD038823C9F18530C9F18091E800C9
:1029600083FD31C08091E80082FDEACF8091E800CC
:1029700080FFE1CF8091F3002091F200382F6115A4
:10298000710519F02830310558F091E028303105F3
:1029900009F090E08091E8008E778093E800CBCF3B
:1029A00084918093F1003196615071092F5F3F4F00
:1029B000E6CF8091CD03882341F0853041F08091AE
:1029C000E80083FFBDCF81E0089582E0089583E0B1
:1029D0000895982F973028F08F708093E90081E058
:1029E00008959093E900242F762F50E0981731F046
:1029F0007091EC002091ED005091F00021FD02C09B
:102A00009F5FE8CF3091EB003E7F3093EB00309139
:102A1000ED003D7F3093ED003091EB00316030935D
:102A2000EB007093EC002093ED005093F0002091A8
:102A3000EE0027FDE5CF80E008958091CE0387FF6B
:102A400013C08091E80082FF06C08091E8008B7778
:102A50008093E80004C08091CD038111F2CF0895E6
:102A60008091CD038823D9F38091E80080FFF8CFCF
:102A70008091E8008E77ECCF2091E4003091E50062
:102A800085E6A9019091EC0090FF06C09091E800C6
:102A900090FF06C080E008959091E80092FDFACF83
:102AA0009091CD03992389F0953089F09091EB00B6
:102AB00095FD0FC02091E4003091E50042175307C7
:102AC00009F38150F1F684E0089582E0089583E0EF
:102AD000089581E008950E94D9150E94E115E0EE65
:102AE000F0E0808181608083E8EDF0E080818F7785
:102AF000808319BCA7EDB0E08C918E7F8C93808190
:102B00008F7E80831092CC0308950F931F93CF93F1
:102B1000DF930E94D9150E94E115C8EDD0E08881AD
:102B20008F77888388818068888388818F7D888378
:102B300019BC1092CD031092C9031092CB031092CE
:102B4000CA0300EE10E0F80180818B7F80838881CA
:102B50008160888342E060E080E00E94E914E1EE59
:102B6000F0E080818E7F8083E2EEF0E08081816002
:102B70008083808188608083F80180818E7F80835C
:102B8000888180618883DF91CF911F910F91089593
:102B9000E8EDF0E080818F7E8083E7EDF0E08081DA
:102BA0008160808384E082BF81E08093CC030C94B9
:102BB0008515E8EDF0E080818E7F80831092E20041
:102BC00008951092DA001092E10008951F920F927A
:102BD0000FB60F9211242F933F934F935F936F93F0
:102BE0007F938F939F93AF93BF93EF93FF938091C6
:102BF000E10082FF0BC08091E20082FF07C080915C
:102C0000E1008B7F8093E1000E9450128091DA00F6
:102C100080FF19C08091D80080FF15C08091DA0034
:102C20008E7F8093DA008091D90080FF94C080E18C
:102C300089BD82E189BD09B400FEFDCF81E08093AA
:102C4000CD030E9436128091E10080FF19C080916F
:102C5000E20080FF15C08091E2008E7F8093E20049
:102C60008091E20080618093E2008091D8008062D0
:102C70008093D80019BC85E08093CD030E94651332
:102C80008091E10084FF29C08091E20084FF25C08B
:102C900080E189BD82E189BD09B400FEFDCF80914C
:102CA000D8008F7D8093D8008091E1008F7E809343
:102CB000E1008091E2008F7E8093E2008091E2004B
:102CC00081608093E2008091C903882309F449C0A0
:102CD00084E08093CD030E946E138091E10083FF16
:102CE00029C08091E20083FF25C08091E100877FA9
:102CF0008093E10082E08093CD031092C90380911C
:102D0000E1008E7F8093E1008091E2008E7F8093CE
:102D1000E2008091E20080618093E20042E060E0A6
:102D200080E00E94E9148091F00088608093F000B8
:102D30000E944F12FF91EF91BF91AF919F918F91A0
:102D40007F916F915F914F913F912F910F900FBEA7
:102D50000F901F90189519BC1092CD030E94481235
:102D600072CF8091E30087FD02C081E0B2CF83E0A3
:102D7000B0CF1F920F920FB60F9211242F933F9353
:102D80004F935F936F937F938F939F93AF93BF9373
:102D9000CF93EF93FF93C091E900CF708091EC0047
:102DA0001092E9008091F000877F8093F000789482
:102DB0000E94F5161092E9008091F00088608093DF
:102DC000F000C093E900FF91EF91CF91BF91AF91D7
:102DD0009F918F917F916F915F914F913F912F9133
:102DE0000F900FBE0F901F9018951F93CF93DF93F6
:102DF000CDB7DEB7AA970FB6F894DEBF0FBECDBF32
:102E00008EEC93E02091F100FC012193CF01F3E0DF
:102E1000863D9F07B9F70E94AB128091E80083FFBF
:102E200082C08091CE039091CF039A3008F07BC08E
:102E3000E92FF0E0EF57F04D0C94302F803881F0FF
:102E4000823809F070C08091D2038F708093E900BE
:102E50008091EB0085FB882780F91092E90006C07D
:102E60008091CA039091CB03911182609091E80008
:102E7000977F9093E8008093F1001092F100809189
:102E8000E8008E77F9C0882309F4E6C0823009F0A3
:102E90004AC08091D0038111EAC08091D2038F7023
:102EA00009F441C08093E9002091EB0020FFDFC0CE
:102EB000933031F48091EB0080628093EB00D7C0B7
:102EC0009091EB0090619093EB0021E030E001C025
:102ED000220F8A95EAF72093EA001092EA00809187
:102EE000EB008860EACF81111EC01091D0031F77DC
:102EF0008091E3008078812B8093E3008091E8004B
:102F0000877F8093E8000E941D158091E80080FF74
:102F1000FCCF8091E30080688093E30082E0111190
:102F200083E08093CD038091E80083FF0AC0809105
:102F3000E800877F8093E8008091EB0080628093B7
:102F4000EB00AA960FB6F894DEBF0FBECDBFDF919F
:102F5000CF911F9108958058823028F78091D00337
:102F60009091D1038C3D23E09207A1F583E08A8301
:102F70008AE289834FB7F894DE01139620E03EE0A1
:102F800051E2E32FF0E050935700E49120FF03C09B
:102F9000E295EF703F5FEF708E2F90E0EA30C0F067
:102FA000C7968D939D932F5F243159F74FBF809122
:102FB000E800877F8093E8006AE270E0CE01019626
:102FC0000E942C148091E8008B778093E800ABCFAF
:102FD000C096E7CFAE014F5F5F4F6091D2030E9472
:102FE0007013BC01892B09F49ECF9091E800977F64
:102FF0009093E80089819A810E948A14E3CF8038F7
:1030000009F091CF8091E800877F8093E80080915C
:10301000C9038093F10033CF811185CF9091D00304
:10302000923008F080CF8091E800877F8093E8009D
:103030009093C9030E941D158091C903882311F044
:1030400084E005C08091E30087FDFACF81E08093A2
:10305000CD030E94921267CF8091D003813009F096
:1030600062CF81E0933009F080E08093CB0310922F
:10307000E9008091E800877F8093E8000E941D1599
:1030800052CF90930803809307030895809107031C
:10309000909108030895E0910703F0910803309799
:1030A00021F00190F081E02D099480E00895EF92E5
:1030B000FF920F931F93CF93DF938C01E09107034F
:1030C000F09108033097C1F10280F381E02D09955A
:1030D0008091B70382FF30C080FF04C08AE696E08B
:1030E0000E941A07D0E0C0E084E6E82E86E0F82EC1
:1030F0008091B70380FF0EC0F801EC0FFD1F8081A7
:103100001F928F93FF92EF920E94B3070F900F9040
:103110000F900F902196C032D10551F78091B703DF
:1031200080FF0AC082E696E0DF91CF911F910F9158
:10313000FF90EF900C941A07DF91CF911F910F91A0
:10314000FF90EF900895E0910703F0910803309706
:1031500021F00480F581E02D09940895CF93DF9349
:10316000EC0180910503909106038C179D0701F1F6
:10317000D0930603C0930503E0910703F091080381
:103180003097B1F00680F781E02DCE01099580914E
:10319000B7038570853061F4DF93CF9384E596E0C3
:1031A0009F938F930E94B3070F900F900F900F90F3
:1031B000DF91CF910895CF93DF93EC0180910303CA
:1031C000909104038C179D0701F1D0930403C093E1
:1031D0000303E0910703F09108033097B1F00084F6
:1031E000F185E02DCE0109958091B703857085307A
:1031F00061F4DF93CF9384E496E09F938F930E94D2
:10320000B3070F900F900F900F90DF91CF9108951B
:103210000E94AE250C94CF079F92AF92BF92CF929F
:10322000DF92EF92FF920F931F93CF93DF9300D023
:1032300000D00F92CDB7DEB70E940A088AE0C82EF0
:1032400083E0D82E10E0812F0E94DC08982EF60132
:10325000E1906F01E81699F18091B70381FD0E941A
:10326000BA19F12C01E0E9245601F1E0AF1AB108D6
:103270008E2D8023F9F0F9821A8391E0892D802325
:1032800009F490E09B830E94B7258160782F9D838D
:103290008C8349815A816B818D810E94EE1949810D
:1032A0005A816B817C818D810E943325F50180815B
:1032B00080278083F394000FF8E0FF12D9CF1F5FBF
:1032C000183009F0C0CF8FEF89838A831B820E9458
:1032D000B7258160782F9D838C8349815A816B81CA
:1032E0008D810E94EE190E9432250E9439290E9488
:1032F0004B1890910903891749F10E944B1880934C
:1033000009039091B7039570953061F41F928F93E4
:1033100085E796E09F938F930E94B3070F900F90DD
:103320000F900F90809109030F900F900F900F90C6
:103330000F90DF91CF911F910F91FF90EF90DF9051
:10334000CF90BF90AF909F900C9444250F900F901A
:103350000F900F900F90DF91CF911F910F91FF90E1
:10336000EF90DF90CF90BF90AF909F9008950C9416
:10337000EA080895EF92FF920F931F93CF93DF9384
:103380008EE896E00E941A07D0E0C0E08FE2E82EB7
:1033900081E0F82E00E816E08C2F0E94DC080E94E5
:1033A0001A25FF92EF921F928F93DF93CF931F9373
:1033B0000F930E94B30721968DB79EB708960FB65C
:1033C000F8949EBF0FBE8DBFC830D10529F7DF919D
:1033D000CF911F910F91FF90EF900895CF93DF93BE
:1033E000CDB7DEB72B970FB6F894DEBF0FBECDBFBB
:1033F0004F83588769877A878B878A859B85892B36
:1034000021F0852F84238F3FD9F41E821D8285E011
:10341000FE013796DE01119601900D928A95E1F733
:1034200049815A816B817C818D819E812B960FB65B
:10343000F894DEBF0FBECDBFDF91CF910C94EF208B
:1034400069857A858B850E943325DFCFCF93C82F7E
:10345000882309F490C08CEF8C0F813A58F48C2F9C
:103460000E945D2C811187C08C2F0E94D923CF919F
:103470000C94C02480E28C0F883048F4C77081E03F
:1034800001C0880FCA95EAF70E947D24F0CF8BE532
:103490008C0F833068F481E890E0C53A31F083E81E
:1034A00090E0C63A11F482E890E0CF910C94AE1807
:1034B00088E58C0F853108F05EC082EE90E0C83A56
:1034C00009F456C089EE90E0C93A09F451C08AEE79
:1034D00090E0CA3A09F44CC085EB90E0CB3A09F48D
:1034E00047C086EB90E0CC3A09F442C083EB90E011
:1034F000CD3AF1F184EB90E0CE3AD1F187EB90E058
:10350000CF3AB1F18CEC90E0C13B91F18DEC90E0C1
:10351000C03B71F183E891E0C23B51F18AE891E050
:10352000C33B31F182E991E0C43B11F184E991E0C0
:10353000C53BF1F081E292E0C63BD1F083E292E03C
:10354000C73BB1F084E292E0C83B91F085E292E0A3
:10355000C93B71F086E292E0CA3B51F087E292E00B
:10356000CB3B31F090E080E0CC3B11F48AE292E07A
:10357000CF910C94DB18CF910895882329F19CEF0B
:10358000980F913A20F40E9427240C94C02490E2D2
:10359000980F983050F4877091E001C0990F8A9588
:1035A000EAF7892F0E948324F0CF9BE5980F933090
:1035B00020F490E080E00C94AE18885A853120F415
:1035C00090E080E00C94DB180895882321F00E949D
:1035D0007D240C94C0240895882321F00E94832424
:1035E0000C94C0240895AF92BF92CF92DF92EF92D5
:1035F000FF920F931F93CF93DF9300D000D00F92D1
:10360000CDB7DEB75C0185E0F501DE0111960190D2
:103610000D928A95E1F7F50183819481009739F045
:1036200040815181252F24232F3F09F0DDC20F90C7
:103630000F900F900F900F90DF91CF911F910F91EE
:10364000FF90EF90DF90CF90BF90AF900895F12F53
:10365000FF70EF2E107F19F0E29440EFE422FF207C
:10366000C9F0EE2029F08E2D0E9490240E94C024E3
:10367000802F0F900F900F900F900F90DF91CF91B0
:103680001F910F91FF90EF90DF90CF90BF90AF9080
:103690000C94261A802F0E94BD1AEE2041F28E2D26
:1036A0000E9496240F900F900F900F900F90DF9133
:1036B000CF911F910F91FF90EF90DF90CF90BF902F
:1036C000AF900C94C024812F8F70D82E107F1032B1
:1036D00019F0D29430EFD322002379F0013009F4AD
:1036E00052C0FF2009F460C0EE2059F0F501858139
:1036F00080FFBECF8F70858304C0FF2049F1E110A9
:1037000012C08D2D0F900F900F900F900F90DF91A2
:10371000CF911F910F91FF90EF90DF90CF90BF90CE
:10372000AF900C94E51AE1E08D2DEE12EBCF0F90E7
:103730000F900F900F900F90DF91CF911F910F91ED
:10374000FF90EF90DF90CF90BF90AF900C94A024AB
:10375000E11014C00E94A9248D2D0F900F900F909E
:103760000F900F90DF91CF911F910F91FF90EF90ED
:10377000DF90CF90BF90AF900C94EC1AF1E0EF1671
:1037800009F455CFE7CFFF2051F085E08E1508F4FE
:103790004ECF0E947A248D2109F4B3CFDDCFE4E02F
:1037A000EE1508F444CFD8CFEE20B1F2802F0F9061
:1037B0000F900F900F900F90DF91CF911F910F916D
:1037C000FF90EF90DF90CF90BF90AF900C94BD1A18
:1037D000812F869586958370D1F0813009F027CFAF
:1037E000C8019370F11002C090E080E00F900F903C
:1037F0000F900F900F90DF91CF911F910F91FF903D
:10380000EF90DF90CF90BF90AF900C94DB18C80181
:103810009370F11002C090E080E00F900F900F9035
:103820000F900F90DF91CF911F910F91FF90EF902C
:10383000DF90CF90BF90AF900C94AE18802FFF20F8
:1038400099F00E94C5270F900F900F900F900F9046
:10385000DF91CF911F910F91FF90EF90DF90CF906C
:10386000BF90AF900C94AC280E942D28ECCF812FF4
:10387000837009F071C0F110DACE202F22952695C1
:103880002770220F220F602F6F70C62ED12CF12CC3
:10389000E12C022E04C0CC0CDD1CEE1CFF1C0A9493
:1038A000D2F760E070E0CB0104FF0FC06FE070E082
:1038B00080E090E004C0660F771F881F991F2A954B
:1038C000D2F7609570958095909516951695137022
:1038D0001230C1F060F56C297D298E299F291130A5
:1038E00051F10F900F900F900F900F90DF91CF91AB
:1038F0001F910F91FF90EF90DF90CF90BF90AF900E
:103900000C944D226C297D298E299F290F900F90B0
:103910000F900F900F90DF91CF911F910F91FF901B
:10392000EF90DF90CF90BF90AF900C9467220E94F1
:103930004D22C701B6010F900F900F900F900F907E
:10394000DF91CF911F910F91FF90EF90DF90CF907B
:10395000BF90AF900C9433228695FF2011F0812FF9
:103960008170882309F463CE202F22952695277035
:10397000220F220F602F6F70C62ED12CF12CE12C5C
:10398000022E04C0CC0CDD1CEE1CFF1C0A94D2F7E6
:1039900060E070E0CB0104FF0FC06FE070E080E0FA
:1039A00090E004C0660F771F881F991F2A95D2F7F1
:1039B00060957095809590951695169513701230B8
:1039C000C1F060F56C297D298E299F29113051F1B4
:1039D0000F900F900F900F900F90DF91CF911F914C
:1039E0000F91FF90EF90DF90CF90BF90AF900C942D
:1039F00012236C297D298E299F290F900F900F90FB
:103A00000F900F90DF91CF911F910F91FF90EF904A
:103A1000DF90CF90BF90AF900C9424230E9412238C
:103A2000C701B6010F900F900F900F900F90DF918C
:103A3000CF911F910F91FF90EF90DF90CF90BF90AB
:103A4000AF900C940023003F09F444C060F480E47C
:103A5000800F803228F1FF2009F495C0E11008CED4
:103A6000812F8F7159C0023F09F467C008F450C01C
:103A7000033F89F7FF2009F475C0812F8F710F90E4
:103A80000F900F900F900F90DF91CF911F910F919A
:103A9000FF90EF90DF90CF90BF90AF900C94862274
:103AA000812F8F71102F1071FF2051F00E949B22E7
:103AB000802F8295807F111125CE802F8F7022CE8E
:103AC0000E94BC22802F8295807F111146CE802FCC
:103AD0008F7043CEFF20B9F0F4E0FE1508F4A7CDB7
:103AE000812F8F710F900F900F900F900F90DF919B
:103AF000CF911F910F91FF90EF90DF90CF90BF90EB
:103B0000AF900C94DF2285E08E1508F490CDE8CFBD
:103B1000812F8F71FF20A9F00F900F900F900F90C1
:103B20000F90DF91CF911F910F91FF90EF90DF9059
:103B3000CF90BF90AF900C949B22812F8F71FF206C
:103B400059F30F900F900F900F900F90DF91CF913E
:103B50001F910F91FF90EF90DF90CF90BF90AF90AB
:103B60000C94BC220F900F900F900F900F90DF914C
:103B7000CF911F910F91FF90EF90DF90CF90BF906A
:103B8000AF900C948122E11011CE812F8F71D9CF8B
:103B9000412F4F70602FC5010E945B260F900F9040
:103BA0000F900F900F90DF91CF911F910F91FF9089
:103BB000EF90DF90CF90BF90AF900C948921412F70
:103BC0004F70602FC5010F900F900F900F900F90C6
:103BD000DF91CF911F910F91FF90EF90DF90CF90E9
:103BE000BF90AF900C945E26F280E580E2942FE0C7
:103BF000E222782F9D838C836F2D8D810E94372345
:103C00008C010E9436230E942822E12FE295EF705A
:103C1000F0E0E557F04D0C94302F0E949D240E9457
:103C20006C240E94C0240E94DA290E94AC2890E0F3
:103C300080E00E94AE1890E080E00C94DB180E94B7
:103C40008D240C940D1ECF93DF9300D000D00F92E3
:103C5000CDB7DEB76B837C838D838C819D81892B6F
:103C600021F0842F85238F3F89F480E02EC090E2DD
:103C7000980F983008F1883E30F4803EE8F4845084
:103C8000813A98F719C0803F81F716C06B817C811B
:103C90008D810E943723292F22952F702C3070F4AC
:103CA0002A3048F722502F702230F8F6853AF8F67D
:103CB000843010F48230F8F681E007C02C3011F027
:103CC0002F3099F693FB882780F90F900F900F9073
:103CD0000F900F90DF91CF910895CF93DF9300D095
:103CE00000D00F92CDB7DEB70F900F900F900F90CE
:103CF0000F90DF91CF910895CF93DF9300D000D044
:103D000000D0CDB7DEB726960FB6F894DEBF0FBE53
:103D1000CDBFDF91CF9108951F93CF93DF93C091D3
:103D2000120316E0809113038C1304C0DF91CF912E
:103D30001F910895D0E01C9FF0011D9FF00D1124EC
:103D4000EC5EFC4F40815181628173818481958159
:103D50000E947C1E2196C770E5CF4091440350918C
:103D60004503609146037091470380914803909109
:103D700049030C947C1E1F93CF93DF9380914903DA
:103D8000807FC1F4809146038823A1F080911203C3
:103D9000C091130360914403709145034091470320
:103DA00050914803D62FD723DA01A095B09516E09D
:103DB000C81304C0DF91CF911F91089590E0411581
:103DC000510511F0DF3F31F401968770F1CF2A0FD2
:103DD0003B1F17C0189FF001199FF00D1124EC5ED6
:103DE000FC4F21812713F0CF20812613EDCF2281B4
:103DF0002111EACF238134812417350740F3241B96
:103E0000350B2C32314000F7209149032F7020618F
:103E10002093490326E0289FF001299FF00D1124EB
:103E2000E75EFC4F80818F708061808384E493E043
:103E30000E94F31ADF91CF911F910C948C1EBF92B8
:103E4000CF92DF92EF92FF920F931F93CF93DF9366
:103E5000CDB7DEB761970FB6F894DEBF0FBECDBF0A
:103E60006C0185E0F601DE011D9601900D928A95A8
:103E7000E1F7D6014C9111965C9111971296FC9046
:103E8000129713960D911C918091470390914803CE
:103E9000009709F48FC12091440330914503622FAC
:103EA00063236F3F09F486C1B0904603BB2009F439
:103EB0001FC10817190758F0F801E81BF90BCF01CB
:103EC000EE24E3948C32914058F0E12C09C08095A7
:103ED0009095800F911FEE24E3948C329140A8F7C7
:103EE00080914903982F907FEE2009F4B7C091117B
:103EF0007CC0EF2C351324C0241322C0F11020C045
:103F00008F708061809349030E94AD1E84E493E02A
:103F10000E94F31A80914903D60115968C938E2D39
:103F200061960FB6F894DEBF0FBECDBFDF91CF9183
:103F30001F910F91FF90EF90DF90CF90BF90089569
:103F40000115110529F0852F84238F3F09F044C105
:103F500080E0B82FB170BB2E80FF3DC0809112036E
:103F60002091130336E0821316C0702F198B088B33
:103F70006F2D89890E943723292F22952F70223097
:103F8000F0F0243018F59F70F1F0F6019581907FE4
:103F9000D1F4B12C1EC090E0389FF001399FF00D94
:103FA0001124EC5EFC4F6181651306C060816413CF
:103FB00003C06281F6120FC001968770D4CF9F7044
:103FC00011F0882331F3805E883018F3C6010E9417
:103FD000F31AEB2CA4CFFF2009F4A1CF8091490361
:103FE000816080934903E12C9ACF351306C02413D6
:103FF00004C0D601FF2009F4AFC04D875E87FF865D
:10400000702F198B088B6F2D89890E94231E88239E
:1040100009F4DEC0FF2009F4DBC08091490380323F
:1040200070F0209144033091450338872F8319861F
:104030001B870A878C87CE0107960E94F31A86E0B9
:10404000F601A4E4B3E001900D928A95E1F70E9495
:10405000BB1E0E94AD1EEE24E39461CF911113C0EC
:10406000702F198B088B6F2D89890E946D1E84E437
:1040700093E00E94F31A86E0E4E4F3E0DF011D928E
:104080008A95E9F776C0351311C024130FC0F110DB
:104090000DC0F6018583C6010E94F31AE4E4F3E043
:1040A00086E0DF011D928A95E9F793CF4D875E8701
:1040B000FF86702F198B088B6F2D89890E94231E14
:1040C000882309F485C0FF2009F482C08091490348
:1040D000803208F4B4CF20914403309145033A83F1
:1040E00029831B821D830C838E83CE010196A5CF6D
:1040F0000817190780F0F801E81BF90BCF018C3283
:10410000914080F0E12C702F198B088B6F2D8989DD
:104110000E946D1EB0CF80959095800F911F8C32BC
:10412000914080F7EF2CFF2009F452C035132DC0C9
:1041300024132BC08091490380FD1EC0982F907FCF
:10414000D9F0D60115968C931597903F39F0982F9A
:10415000907F905F8F70892B15968C93C6010E947B
:10416000F31A86E0F601A4E4B3E001900D928A957B
:10417000E1F70E94AD1ED3CE86E0F601A4E4B3E0E1
:1041800001900D928A95E1F7CACE4D875E87FF8632
:10419000702F198B088B6F2D89890E94231E811126
:1041A0004ECF80914903816080934903C6010E94EC
:1041B000F31AB5CEFF2061F04D875E87FF86702F22
:1041C000198B088B6F2D89890E94231E811137CF8F
:1041D000C6010E94F31A3FCF81E08F25BACE1F930C
:1041E000CF93DF93CDB7DEB72C970FB6F894DEBF31
:1041F0000FBECDBF4F83588769877A878B879C878F
:10420000CE0107960E941F1F882369F08A859B852F
:10421000892B39F04F815885842F85238F3F09F0F2
:1042200071C016E05FC086E0FE013796DE01119690
:1042300001900D928A95E1F78A859B85892B89F3F8
:1042400088859F8189238F3F61F32091130330E09C
:10425000C9010196877099274091120348171906E2
:1042600071F40E941F1E109213031092120386E035
:10427000E4E4F3E0DF011D928A95E9F7D2CF96E0FE
:10428000929FD001939FB00D1124AC5EBC4FFE01F4
:10429000319601900D929A95E1F7809313030E9455
:1042A0008C1EBFCF819FC00111248C5E9C4F0E9449
:1042B0001F1F8823E9F0E09112031E9FF0011124D3
:1042C000EC5EFC4F408151816281738184819581D4
:1042D0000E947C1E8091120390E0019687709927BE
:1042E0008093120380911203909113038913DACF04
:1042F0002C960FB6F894DEBF0FBECDBFDF91CF91E5
:104300001F91089569857A858B859C850E947C1E06
:1043100088CFDF92EF92FF920F931F93CF93DF939B
:104320008C01892BB9F0E12CF12CDD24D394E80128
:104330002196F8018491853709F46AC098F484378E
:1043400008F059C0843008F06FC0813011F182301C
:1043500009F43CC0DF91CF911F910F91FF90EF9036
:10436000DF900895883709F45CC058F4863709F463
:1043700054C0873779F78E2D0E948A240E94C0246A
:104380001FC09CE7980F903728F78F770E94BD1ABF
:1043900017C00E5F1F4FFE01849190E2980F983076
:1043A00060F48770FD2D01C0FF0F8A95EAF78F2F0B
:1043B0000E9490240E94C02402C00E94261AE80194
:1043C0008F2D815008F033C08E01B1CF0E5F1F4F8B
:1043D000FE01849190E2980F983050F48770FD2D83
:1043E00001C0FF0F8A95EAF78F2F0E949624E2CF33
:1043F0000E94BD1AE4CF0E5F1F4FFE01C491C15051
:10440000F0F28FE99FE00197F1F700C00000F7CFCD
:104410000E5F1F4FFE01F490D2CF0E947A24E82E47
:10442000CFCF0E948D24AACF0E94261AC9CFEFE9D0
:10443000FFE03197F1F700C00000C3CF60938A031B
:1044400070938B0380938C0390938D030C9443257E
:10445000089560938E0370938F03809390039093DD
:1044600091030C9442250F931F9300918E0310919A
:104470008F032091900330919103602B712B822B3D
:10448000932B60938E0370938F038093900390938C
:1044900091031F910F910C9442250F931F9300914C
:1044A0008E0310918F03209190033091910360232C
:1044B00071238223932360938E0370938F038093E1
:1044C0009003909391031F910F910C9442250F93A9
:1044D0001F9300918E0310918F03209190033091D0
:1044E0009103602771278227932760938E0370932F
:1044F0008F0380939003909391031F910F910C94DD
:10450000422560E070E0CB010C941E220F931F93B4
:1045100041E050E060E070E08A019B0104C0000FC0
:10452000111F221F331F8A95D2F7C901B8011F91AD
:104530000F910C941E220F931F9341E050E060E016
:1045400070E004C0440F551F661F771F8A95D2F78D
:1045500080918A0390918B03A0918C03B0918D037D
:104560008A019B01082B192B2A2B3B2BC901B8016F
:104570001F910F910C941E220F931F9341E050E066
:1045800060E070E004C0440F551F661F771F8A95D6
:10459000D2F7CB01BA016095709580959095009106
:1045A0008A0310918B0320918C0330918D0360233B
:1045B0007123822393231F910F910C941E220F933A
:1045C0001F9341E050E060E070E004C0440F551FCD
:1045D000661F771F8A95D2F780918A0390918B038B
:1045E000A0918C03B0918D038A019B0108271927A4
:1045F0002A273B27C901B8011F910F910C941E2255
:104600000F931F9300918A0310918B0320918C03C9
:1046100030918D03602B712B822B932B1F910F9167
:104620000C941E220F931F9300918A0310918B0309
:1046300020918C0330918D03602371238223932377
:104640001F910F910C941E220F931F9300918A03C8
:1046500010918B0320918C0330918D03602771277B
:10466000822793271F910F910C941E2208954F9239
:104670005F926F927F929F92AF92BF92CF92DF92A2
:10468000EF92FF920F931F93CF93DF9300D000D050
:104690000F92CDB7DEB749835A836B837C838D83BA
:1046A0008C819D81892B29F07A018F2D84238F3F66
:1046B00051F590E080E00F900F900F900F900F90C9
:1046C000DF91CF911F910F91FF90EF90DF90CF90EE
:1046D000BF90AF909F907F906F905F904F900895A4
:1046E000B7018A2D0E947C260197C1F13CC0F801D8
:1046F00083E0EE0FFF1F8A95E1F7E65BFC4FEC0DC0
:10470000FD1D90803BC00F2D10E0C42ED12C8B815D
:10471000882369F340908A0350908B0360908C0348
:1047200070908D0380918E0390918F03A0919003E0
:10473000B0919103482A592A6A2A7B2A2FE1A22E96
:10474000B12C9A2CD301C2010A2C04C0B695A795AE
:10475000979587950A94D2F780FDC2CF81E0A81A79
:10476000B10878F7912CF80193E0EE0FFF1F9A95AE
:10477000E1F7E65BFC4FEC0DFD1D9082E982FA82C9
:1047800069817A81892D0F900F900F900F900F9073
:10479000DF91CF911F910F91FF90EF90DF90CF901D
:1047A000BF90AF909F907F906F905F904F900C94D0
:1047B0007C2690912001992369F190912101992300
:1047C00049F1E82FE695E695E695EF3191F02091D5
:1047D000220130912301E20FF32FF11D877021E0B8
:1047E00030E001C0220F8A95EAF78181822B818314
:1047F00008959091B70390FF22C01F928F938AEB88
:1048000096E09F938F930E94B3070F900F900F90A5
:104810000F9008952091220130912301F9013296E1
:104820009FEF40E05191851751F09F3F19F45111CE
:1048300001C0942F4F5F4E31A9F79F3F09F40895AF
:10484000290F311D97FD3A95F901828308959091C2
:104850002001992379F190912101992359F1E82FB1
:10486000E695E695E695EF31A1F020912201309191
:104870002301E20FF32FF11D282F277081E090E034
:1048800001C0880F2A95EAF7809591818923818359
:1048900008959091B70390FF1EC01F928F938CE9EB
:1048A00096E09F938F930E94B3070F900F900F9005
:1048B0000F9008952091220130912301F901329641
:1048C000205E3F4F9191891303C0DF0111971C9225
:1048D000E217F307B9F7089581E090E0E091220133
:1048E000F0912301E80FF91F1082019680329105A3
:1048F000A9F708958091B60308959091B603892B86
:104900008093B603089580959091B6039823909371
:10491000B60308958093B60308951092B6030895E0
:104920009091B503892B8093B5030895809590915C
:10493000B50398239093B50308951092B503089595
:10494000809394030E94B7259093930380939203DE
:104950000895109294031092930310929203089575
:104960002091220130912301F9013196205E3F4FC1
:1049700080E0919191118F5FE217F307D1F70895CD
:10498000E0912201F09123018091B6038083E091B0
:104990002201F091230180819091B503892B8083BE
:1049A00080919403882381F10E94B725209192037E
:1049B000309193038217930768F10E94B7252091E5
:1049C000920330919303821B930B8C32914070F0D1
:1049D0008091B70380FF08C088ED96E09F938F9386
:1049E0000E94B3070F900F900E94A924E09122012A
:1049F000F0912301808190919403892B80830E9400
:104A0000B02481110E94A924809122019091230158
:104A10000C9457180E94B72520919203309193036C
:104A200020953095820F931FD0CF9093A101809352
:104A3000A0010895829590E09C01220F331F220F60
:104A4000331F2C7C95958795959587958373282B97
:104A500030E0C901880F991F8A7A35952795257509
:104A6000822B08950895CF93DF9300D000D00F924A
:104A7000CDB7DEB70F900F900F900F900F90DF9192
:104A8000CF910895089508950C94B7198091CD039E
:104A9000843021F11092B80388E190E020E40FB651
:104AA000F894A895809360000FBE2093600083B7B0
:104AB000817F846083BF83B7816083BF789488954A
:104AC00083B78E7F83BF0FB6F894A895809160005E
:104AD000886180936000109260000FBE0895CF93AC
:104AE0000E94E6080E940A080E94E808C0E08C2F95
:104AF0000E94DC08811105C0CF5FC830C1F7CF919B
:104B0000089581E0FCCF0E94B9190C941F1E1F92DA
:104B10001FB61F9211248F939F93AF93BF938091E1
:104B2000B803811113C08091B9039091BA03A09189
:104B3000BB03B091BC034196A11DB11D8093B90385
:104B40009093BA03A093BB03B093BC03BF91AF9102
:104B50009F918F911F901FBE1F90189582E084BD7A
:104B600093E095BD9AEF97BD80936E0008952FB79F
:104B7000F8948091B9039091BA03A091BB03B091CE
:104B8000BC032FBF08952FB7F8946091B9037091BB
:104B9000BA038091BB039091BC032FBF0895CF92BD
:104BA000DF92EF92FF920F931F932FB7F8944091EB
:104BB000B9035091BA036091BB037091BC032FBF3E
:104BC0006A017B01EE24FF248C0130E020E0C01656
:104BD000D106E206F30650F0481B590BCA011F919B
:104BE0000F91FF90EF90DF90CF90089541505109C1
:104BF000F3CFAB01BC012FB7F8948091B90390912A
:104C0000BA03A091BB03B091BC032FBF84179507D3
:104C1000A607B70738F0841B950BA60BB70BBC0192
:104C2000CD0108950197A109B109F5CF1F921FB6D3
:104C30001F9211248F939F93AF93BF938091B903D9
:104C40009091BA03A091BB03B091BC030196A11D42
:104C5000B11D8093B9039093BA03A093BB03B093A3
:104C6000BC03BF91AF919F918F911F901FBE1F906A
:104C700018950E946B15F8942FEF87EA91E6215062
:104C800080409040E1F700C0000087E090EBDC013D
:104C90008093D6039093D703A093D803B093D903FE
:104CA00088E19CE00FB6F894A895809360000FBE51
:104CB00090936000FFCF90E080E00895089528E091
:104CC000829FC0011124FC01E70FF11D83E0EE0F6C
:104CD000FF1F8A95E1F7E60FF11DEE54FF4F849117
:104CE0000895282F205C330BF901EE0FFF1FE455C8
:104CF000FF4F8591949108950E945F26282F30E000
:104D0000A901405C51094032510510F40C94712600
:104D10008D3B60F4883A90F5853A18F58430F8F4C4
:104D2000813009F4ACC090E080E00895883E90F4B2
:104D3000803EA8F48F3BB9F70E941F1E2FEF80E73B
:104D400092E0215080409040E1F700C000000E94B6
:104D50003926E9CF803F38F3C90190650895C9012C
:104D60000895853A29F0863A31F083E890E4089571
:104D700081E890E4089582E890E40895883A09F47F
:104D80003FC0893A09F43FC08A3A09F43FC08B3AE0
:104D900009F43FC08C3A09F43FC08D3A09F43FC092
:104DA0008E3A09F43FC08F3A09F43FC0813B09F4C1
:104DB0003FC0803B09F43FC0823B09F43FC0833BC6
:104DC00009F43FC0843B09F43FC0853B09F43FC070
:104DD000863B09F43FC0873B09F43FC0883B09F498
:104DE0003FC0893B09F43FC08A3B09F43FC08B3B7D
:104DF00009F43FC08C3B09F43FC080E094E408957F
:104E000082EE94E4089589EE94E408958AEE94E4A1
:104E1000089585EB94E4089586EB94E4089583EB7C
:104E200094E4089584EB94E4089587EB94E4089562
:104E30008CEC94E408958DEC94E4089583E895E473
:104E400008958AE895E4089582E995E4089584E94F
:104E500095E4089581E296E4089583E296E4089546
:104E600084E296E4089585E296E4089586E296E465
:104E7000089587E296E408958AE296E4089581E031
:104E800090E008958091BF0380FF12C060912701D8
:104E900085E0689FB00111247595679575956795B4
:104EA00060387105A8F561157105A1F1862F089587
:104EB00081FF09C06091270185E0689FB00111243E
:104EC00075956795EDCF6091270182FD0AC08091AD
:104ED000C0038823D1F090912601609127018917A2
:104EE00028F085E0689FB0011124DACF869FB001D9
:104EF000112485E0869F9001879F300D1124692F32
:104F000070E0C9010E94FA2ECBCF65E070E0CECFF1
:104F10008FE7089581E008958091BF0380FF0CC062
:104F20006091250170E07595679575956795611598
:104F3000710549F1862F089581FF06C06091250112
:104F400070E075956795F3CF6091250182FD0BC0E8
:104F50009091C0039923A1F06091240180912501D3
:104F6000961738F0682F70E06038710500F38FE70E
:104F70000895899FC001112470E00E94FA2EF4CF99
:104F800061E070E0D7CF81E00895803F31F40E9466
:104F9000422781958093C3030895813F19F40E94AD
:104FA0004227F8CF823F31F40E94422781958093B7
:104FB000C2030895833F19F40E944227F8CF893F26
:104FC00029F40E948C278093C40308958A3F21F41A
:104FD0000E948C278195F7CF8B3F31F40E948C275C
:104FE00081958093C50308958C3F19F40E948C2706
:104FF000F8CF843F31F48091C10381608093C10375
:105000000895853F21F48091C1038260F7CF863FE8
:1050100021F48091C1038460F1CF873F21F4809116
:10502000C1038860EBCF883F21F48091C103806188
:10503000E5CF8D3F31F48091BF0381608093BF0342
:1050400008958E3F21F48091BF038260F7CF8F3F98
:10505000B9F78091BF038460F1CF9091C203803F84
:1050600041F48091C30387FD1092C303992371F02B
:105070000895813F29F48091C3031816ACF3F6CF4D
:10508000823F81F497FFF2CF1092C2038091C30355
:105090009091C403892B9091C503892B49F71092F5
:1050A000C0030895833F19F4191674F3DFCF893FC5
:1050B00039F48091C4031816CCF61092C403D6CFED
:1050C0008A3F29F48091C40387FFD0CFF6CF8B3F6E
:1050D00039F48091C50387FFC9CF1092C503C6CFAD
:1050E0008C3F29F48091C5031816BCF3BFCF843FD1
:1050F00031F48091C1038E7F8093C103B7CF853F88
:1051000021F48091C1038D7FF7CF863F21F48091F8
:10511000C1038B7FF1CF873F21F48091C103877F4B
:10512000EBCF883F21F48091C1038F7EE5CF8D3F87
:1051300031F48091BF038E7F8093BF0397CF8E3F62
:1051400021F48091BF038D7FF7CF8F3F09F08ECF81
:105150008091BF038B7FF0CF8091B70383FF7EC028
:1051600081E197E00E941A078091C1031F928F93FB
:105170008CE097E09F938F930E94B3078AE097E0BB
:105180000E941A078091C203282F082E000C330BAF
:105190003F938F9387E097E09F938F930E94B3078D
:1051A00085E097E00E941A078091C303282F082EFC
:1051B000000C330B3F938F9382E097E09F938F9384
:1051C0000E94B30780E097E00E941A078091C40311
:1051D000282F082E000C330B3F938F938DEF96E012
:1051E0009F938F930E94B3078BEF96E00E941A075C
:1051F0008091C503282F082E000C330B3F938F930B
:1052000088EF96E09F938F930E94B30785EF96E017
:105210000E941A078091C0031F928F9382EF96E03D
:105220009F938F930E94B30780EF96E00E941A0726
:105230008091BF031F928F938DEE96E09F938F9383
:105240000E94B3078AEE96E00E941A078DB79EB7B8
:105250004C960FB6F8949EBF0FBE8DBF81EC93E0C5
:105260000E94A3180E94B7259093BE038093BD03AC
:1052700008951F93CF93DF938091BD039091BE0358
:105280000E94CF25AC019091C0032091280130E00D
:10529000911106C0209129018AE0289F90011124D4
:1052A0004217530778F02091C203C091C303D091F5
:1052B000C4031091C503211109C08C2F8D2B812BA4
:1052C00009F074C0DF91CF911F9108959F3F19F0AD
:1052D0009F5F9093C003121624F40E94422780938C
:1052E000C2038091C20387FF05C00E9442278195B7
:1052F0008093C2031C1624F40E9442278093C303A8
:105300008091C30387FF05C00E9442278195809347
:10531000C3036091C203662331F1C091C303CC2360
:1053200011F1062E000C770B880B990B0E94E12DD2
:1053300023E333E343E35FE30E94452E0E94A92D5C
:105340006093C2036C2FCC0F770B880B990B0E94D4
:10535000E12D23E333E343E35FE30E94452E0E9404
:10536000A92D6093C3031D1624F40E948C278093FB
:10537000C4038091C40387FF05C00E948C278195D8
:105380008093C403111624F40E948C278093C503D4
:105390008091C50387FF05C00E948C27819580936B
:1053A000C503DF91CF911F910C94AC289F3F09F06A
:1053B0008FCFA0CF85E0E1ECF3E0DF011D928A956D
:1053C000E9F71092C0031092BF03089584E399E0B7
:1053D0000E941A071F9281E08F931F9285E08F939E
:1053E00086EE98E09F938F930E94B3070F900F90E3
:1053F0000F900F900F900F900895833009F445C0DF
:1054000028F4813061F0823049F10895853009F443
:105410006AC008F451C0863009F47CC008958091B8
:105420002901482F460F5527551F4F3F510594F42A
:10543000680F60932901809129011F928F938FE15A
:1054400098E09F938F930E94B3070F900F900F9057
:105450000F9008958FEF80932901EDCF809128015F
:10546000482F460F5527551F4F3F510554F4680FDD
:1054700060932801809128011F928F938DE098E01E
:10548000E0CF8FEF80932801F5CF80912701482F3F
:10549000460F5527551F4F3F510554F4680F609331
:1054A0002701809127011F928F938AEF97E0C9CF40
:1054B0008FEF80932701F5CF80912601482F460F6B
:1054C0005527551F4F3F510554F4680F609326012F
:1054D000809126011F928F9385EE97E0B2CF8FEFD8
:1054E00080932601F5CF80912501482F460F55273F
:1054F000551F4F3F510554F4680F6093250180916B
:1055000025011F928F938CEC97E09BCF8FEF8093B8
:105510002501F5CF80912401482F460F5527551FAF
:105520004F3F510554F4680F60932401809124018A
:105530001F928F9381EB97E084CF8FEF80932401AC
:10554000F5CF8330C9F128F4813061F0823019F150
:105550000895853009F452C008F43FC0863009F43C
:105560005EC0089580912901681790F4861B80938E
:105570002901809129011F928F9382EA97E09F93DE
:105580008F930E94B3070F900F900F900F90089584
:1055900010922901EECF80912801681750F4861BE4
:1055A00080932801809128011F928F9380E997E0D2
:1055B000E6CF10922801F6CF80912701681750F4AA
:1055C000861B80932701809127011F928F938DE77F
:1055D00097E0D5CF10922701F6CF8091260168176A
:1055E00050F4861B80932601809126011F928F9391
:1055F00088E697E0C4CF10922601F6CF809125016E
:10560000681750F4861B80932501809125011F9215
:105610008F938FE497E0B3CF10922501F6CF80915E
:105620002401681750F4861B809324018091240183
:105630001F928F9384E397E0A2CF10922401F6CFBC
:10564000CF93C82F1F928F9389E39AE09F938F93F4
:105650000E94B30761E070E080E090E004C0660F54
:10566000771F881F991FCA95D2F70E9429220F9091
:105670000F900F900F90CF910C941F1ECF938732F5
:1056800008F050C08E3108F016C1803109F4A8C06E
:10569000F8F4873009F488C048F4863009F472C001
:1056A00080E09BE00E941A07C0E027C08B3009F41D
:1056B00064C08E30A9F79091B703892F8B7F92FF3A
:1056C00084608093B70382FF88C083EC9CE07CC039
:1056D000863109F4ACC0A0F4813111F70E941F1E7D
:1056E000C091210181E0C827C0932101CC2309F496
:1056F000DFC08DE09BE00E941A078C2FCF910895A8
:10570000893109F47DC08B3159F69091B703892F07
:105710008D7F91FF82608093B70381FF5BC080EE35
:105720009CE052C0883349F158F4893229F085331E
:1057300019F0873209F0B4CF80E00E94202B32C0EC
:105740008334D1F328F48A3308F4AACF8953F5CFF0
:10575000883409F0A5CF0E941F1E86E09DE00E94BC
:105760001A072FEF83ED90E3215080409040E1F73E
:1057700000C000000E94392615C085E69AE00E940C
:105780001A0710C08091B703807F8093B7038EE320
:105790009AE00E941A0787E19DE00E941A0781E0C3
:1057A0008093C703C1E0A9CF8091B70380FF0AC0EF
:1057B00089EF9CE00E941A078091B703807F809355
:1057C000B703F0CF8DEE9CE00E941A078091B703DB
:1057D0008160F5CF82ED9CE0D2CF83EB9CE0CFCF10
:1057E0009091B703892F877F93FF88608093B703D9
:1057F00083FF03C087EA9CE0E7CF8AE99CE0BFCF44
:105800008BE89CE00E941A078EE59CE00E941A0734
:1058100087E29CE00E941A0789EF9BE00E941A072A
:105820008EEB9BE00E941A0783E99BE0A8CF85E8F6
:105830009BE00E941A070E944B181F928F938BE6E1
:105840009BE09F938F930E94B307809120011F924A
:105850008F9384E59BE09F938F930E94B307809181
:1058600002031F928F9381E49BE09F938F930E948A
:10587000B307809121011F928F938EE29BE09F934B
:105880008F930E94B3070E94C3259F938F937F93AA
:105890006F9387E19BE09F938F930E94B3078DB72F
:1058A0009EB746960FB6F8949EBF0FBE8DBF7ACFB7
:1058B00082E09BE064CF8D5140CFCF93C82F809181
:1058C000C7038130D9F0882339F0823009F44DC004
:1058D0001092C70380E010C0E0912201F0912301F3
:1058E00080818232B9F78C2F0E94280C81111EC052
:1058F0008C2F0E943E2B8170CF910895E091220160
:10590000F09123018081823271F38C2F0E947B0EF3
:1059100081111BC0C431D9F060F4CB3071F0C031BB
:10592000D1F08FE29AE00E941A0713C081E090E064
:10593000E2CFC93261F0C833A1F78EE39AE00E944A
:105940001A0785E39AE00E941A0781E0D4CF1092EB
:10595000C70380E0D0CF0E94E62981E39AE00E944D
:105960001A0782E08093C703F0CFC432C8F4CE3167
:1059700008F0BEC0CB30E1F040F4C73009F4CFC02E
:1059800083ED98E00E941A0726C0C331C1F1C431EB
:10599000B9F78091C603882351F11092C6030AC05B
:1059A000CB3409F4BAC0C8F4C93299F3C83341F70B
:1059B0000E94E6298091C603882309F4C7C01F927C
:1059C0008F938DEC98E09F938F930E94B3070F9075
:1059D0000F900F900F9081E08FCFC13509F497C0E1
:1059E000C23509F48EC0CE3459F66AE091C082EE19
:1059F00098E00E941A0781E08093C7037DCF8CEB6B
:105A000098E00E941A078AEA98E00E941A0780919B
:105A100029011F928F9387EA98E09F938F930E94AA
:105A2000B30785EA98E00E941A0783E998E00E948C
:105A30001A07809128011F928F9380E998E09F9325
:105A40008F930E94B3078EE898E00E941A078FE7B1
:105A500098E00E941A07809127011F928F938CE78C
:105A600098E09F938F930E94B3078AE798E00E9483
:105A70001A0789E698E00E941A07809126011F9272
:105A80008F9386E698E09F938F930E94B30784E6F6
:105A900098E00E941A078FE498E00E941A0780910C
:105AA00025011F928F938CE498E09F938F930E941F
:105AB000B3078AE498E00E941A0783E398E00E9403
:105AC0001A07809124011F928F9380E398E09F939F
:105AD0008F930E94B3078EE298E00E941A078DB759
